{
  "_format": "hh-sol-artifact-1",
  "contractName": "ByptNFT",
  "sourceName": "contracts/ByptNFT.sol",
  "abi": [
    {
      "inputs": [
        {
          "internalType": "string",
          "name": "name_",
          "type": "string"
        },
        {
          "internalType": "string",
          "name": "symbol_",
          "type": "string"
        },
        {
          "internalType": "address",
          "name": "owner_",
          "type": "address"
        }
      ],
      "stateMutability": "nonpayable",
      "type": "constructor"
    },
    {
      "inputs": [
        {
          "internalType": "uint256",
          "name": "numerator",
          "type": "uint256"
        },
        {
          "internalType": "uint256",
          "name": "denominator",
          "type": "uint256"
        }
      ],
      "name": "ERC2981InvalidDefaultRoyalty",
      "type": "error"
    },
    {
      "inputs": [
        {
          "internalType": "address",
          "name": "receiver",
          "type": "address"
        }
      ],
      "name": "ERC2981InvalidDefaultRoyaltyReceiver",
      "type": "error"
    },
    {
      "inputs": [
        {
          "internalType": "uint256",
          "name": "tokenId",
          "type": "uint256"
        },
        {
          "internalType": "uint256",
          "name": "numerator",
          "type": "uint256"
        },
        {
          "internalType": "uint256",
          "name": "denominator",
          "type": "uint256"
        }
      ],
      "name": "ERC2981InvalidTokenRoyalty",
      "type": "error"
    },
    {
      "inputs": [
        {
          "internalType": "uint256",
          "name": "tokenId",
          "type": "uint256"
        },
        {
          "internalType": "address",
          "name": "receiver",
          "type": "address"
        }
      ],
      "name": "ERC2981InvalidTokenRoyaltyReceiver",
      "type": "error"
    },
    {
      "inputs": [
        {
          "internalType": "address",
          "name": "sender",
          "type": "address"
        },
        {
          "internalType": "uint256",
          "name": "tokenId",
          "type": "uint256"
        },
        {
          "internalType": "address",
          "name": "owner",
          "type": "address"
        }
      ],
      "name": "ERC721IncorrectOwner",
      "type": "error"
    },
    {
      "inputs": [
        {
          "internalType": "address",
          "name": "operator",
          "type": "address"
        },
        {
          "internalType": "uint256",
          "name": "tokenId",
          "type": "uint256"
        }
      ],
      "name": "ERC721InsufficientApproval",
      "type": "error"
    },
    {
      "inputs": [
        {
          "internalType": "address",
          "name": "approver",
          "type": "address"
        }
      ],
      "name": "ERC721InvalidApprover",
      "type": "error"
    },
    {
      "inputs": [
        {
          "internalType": "address",
          "name": "operator",
          "type": "address"
        }
      ],
      "name": "ERC721InvalidOperator",
      "type": "error"
    },
    {
      "inputs": [
        {
          "internalType": "address",
          "name": "owner",
          "type": "address"
        }
      ],
      "name": "ERC721InvalidOwner",
      "type": "error"
    },
    {
      "inputs": [
        {
          "internalType": "address",
          "name": "receiver",
          "type": "address"
        }
      ],
      "name": "ERC721InvalidReceiver",
      "type": "error"
    },
    {
      "inputs": [
        {
          "internalType": "address",
          "name": "sender",
          "type": "address"
        }
      ],
      "name": "ERC721InvalidSender",
      "type": "error"
    },
    {
      "inputs": [
        {
          "internalType": "uint256",
          "name": "tokenId",
          "type": "uint256"
        }
      ],
      "name": "ERC721NonexistentToken",
      "type": "error"
    },
    {
      "inputs": [
        {
          "internalType": "address",
          "name": "owner",
          "type": "address"
        }
      ],
      "name": "OwnableInvalidOwner",
      "type": "error"
    },
    {
      "inputs": [
        {
          "internalType": "address",
          "name": "account",
          "type": "address"
        }
      ],
      "name": "OwnableUnauthorizedAccount",
      "type": "error"
    },
    {
      "anonymous": false,
      "inputs": [
        {
          "indexed": true,
          "internalType": "address",
          "name": "owner",
          "type": "address"
        },
        {
          "indexed": true,
          "internalType": "address",
          "name": "approved",
          "type": "address"
        },
        {
          "indexed": true,
          "internalType": "uint256",
          "name": "tokenId",
          "type": "uint256"
        }
      ],
      "name": "Approval",
      "type": "event"
    },
    {
      "anonymous": false,
      "inputs": [
        {
          "indexed": true,
          "internalType": "address",
          "name": "owner",
          "type": "address"
        },
        {
          "indexed": true,
          "internalType": "address",
          "name": "operator",
          "type": "address"
        },
        {
          "indexed": false,
          "internalType": "bool",
          "name": "approved",
          "type": "bool"
        }
      ],
      "name": "ApprovalForAll",
      "type": "event"
    },
    {
      "anonymous": false,
      "inputs": [
        {
          "indexed": false,
          "internalType": "uint256",
          "name": "_fromTokenId",
          "type": "uint256"
        },
        {
          "indexed": false,
          "internalType": "uint256",
          "name": "_toTokenId",
          "type": "uint256"
        }
      ],
      "name": "BatchMetadataUpdate",
      "type": "event"
    },
    {
      "anonymous": false,
      "inputs": [
        {
          "indexed": false,
          "internalType": "uint256",
          "name": "_tokenId",
          "type": "uint256"
        }
      ],
      "name": "MetadataUpdate",
      "type": "event"
    },
    {
      "anonymous": false,
      "inputs": [
        {
          "indexed": true,
          "internalType": "address",
          "name": "previousOwner",
          "type": "address"
        },
        {
          "indexed": true,
          "internalType": "address",
          "name": "newOwner",
          "type": "address"
        }
      ],
      "name": "OwnershipTransferred",
      "type": "event"
    },
    {
      "anonymous": false,
      "inputs": [
        {
          "indexed": true,
          "internalType": "address",
          "name": "from",
          "type": "address"
        },
        {
          "indexed": true,
          "internalType": "address",
          "name": "to",
          "type": "address"
        },
        {
          "indexed": true,
          "internalType": "uint256",
          "name": "tokenId",
          "type": "uint256"
        }
      ],
      "name": "Transfer",
      "type": "event"
    },
    {
      "inputs": [
        {
          "internalType": "address",
          "name": "to",
          "type": "address"
        },
        {
          "internalType": "uint256",
          "name": "tokenId",
          "type": "uint256"
        }
      ],
      "name": "approve",
      "outputs": [],
      "stateMutability": "nonpayable",
      "type": "function"
    },
    {
      "inputs": [
        {
          "internalType": "address",
          "name": "owner",
          "type": "address"
        }
      ],
      "name": "balanceOf",
      "outputs": [
        {
          "internalType": "uint256",
          "name": "",
          "type": "uint256"
        }
      ],
      "stateMutability": "view",
      "type": "function"
    },
    {
      "inputs": [
        {
          "internalType": "uint256",
          "name": "tokenId",
          "type": "uint256"
        }
      ],
      "name": "getApproved",
      "outputs": [
        {
          "internalType": "address",
          "name": "",
          "type": "address"
        }
      ],
      "stateMutability": "view",
      "type": "function"
    },
    {
      "inputs": [
        {
          "internalType": "address",
          "name": "owner",
          "type": "address"
        },
        {
          "internalType": "address",
          "name": "operator",
          "type": "address"
        }
      ],
      "name": "isApprovedForAll",
      "outputs": [
        {
          "internalType": "bool",
          "name": "",
          "type": "bool"
        }
      ],
      "stateMutability": "view",
      "type": "function"
    },
    {
      "inputs": [
        {
          "internalType": "address",
          "name": "to",
          "type": "address"
        },
        {
          "internalType": "string",
          "name": "tokenURI_",
          "type": "string"
        }
      ],
      "name": "mintTo",
      "outputs": [
        {
          "internalType": "uint256",
          "name": "",
          "type": "uint256"
        }
      ],
      "stateMutability": "nonpayable",
      "type": "function"
    },
    {
      "inputs": [],
      "name": "name",
      "outputs": [
        {
          "internalType": "string",
          "name": "",
          "type": "string"
        }
      ],
      "stateMutability": "view",
      "type": "function"
    },
    {
      "inputs": [],
      "name": "nextTokenId",
      "outputs": [
        {
          "internalType": "uint256",
          "name": "",
          "type": "uint256"
        }
      ],
      "stateMutability": "view",
      "type": "function"
    },
    {
      "inputs": [],
      "name": "owner",
      "outputs": [
        {
          "internalType": "address",
          "name": "",
          "type": "address"
        }
      ],
      "stateMutability": "view",
      "type": "function"
    },
    {
      "inputs": [
        {
          "internalType": "uint256",
          "name": "tokenId",
          "type": "uint256"
        }
      ],
      "name": "ownerOf",
      "outputs": [
        {
          "internalType": "address",
          "name": "",
          "type": "address"
        }
      ],
      "stateMutability": "view",
      "type": "function"
    },
    {
      "inputs": [],
      "name": "renounceOwnership",
      "outputs": [],
      "stateMutability": "nonpayable",
      "type": "function"
    },
    {
      "inputs": [
        {
          "internalType": "uint256",
          "name": "tokenId",
          "type": "uint256"
        },
        {
          "internalType": "uint256",
          "name": "salePrice",
          "type": "uint256"
        }
      ],
      "name": "royaltyInfo",
      "outputs": [
        {
          "internalType": "address",
          "name": "receiver",
          "type": "address"
        },
        {
          "internalType": "uint256",
          "name": "amount",
          "type": "uint256"
        }
      ],
      "stateMutability": "view",
      "type": "function"
    },
    {
      "inputs": [
        {
          "internalType": "address",
          "name": "from",
          "type": "address"
        },
        {
          "internalType": "address",
          "name": "to",
          "type": "address"
        },
        {
          "internalType": "uint256",
          "name": "tokenId",
          "type": "uint256"
        }
      ],
      "name": "safeTransferFrom",
      "outputs": [],
      "stateMutability": "nonpayable",
      "type": "function"
    },
    {
      "inputs": [
        {
          "internalType": "address",
          "name": "from",
          "type": "address"
        },
        {
          "internalType": "address",
          "name": "to",
          "type": "address"
        },
        {
          "internalType": "uint256",
          "name": "tokenId",
          "type": "uint256"
        },
        {
          "internalType": "bytes",
          "name": "data",
          "type": "bytes"
        }
      ],
      "name": "safeTransferFrom",
      "outputs": [],
      "stateMutability": "nonpayable",
      "type": "function"
    },
    {
      "inputs": [
        {
          "internalType": "address",
          "name": "operator",
          "type": "address"
        },
        {
          "internalType": "bool",
          "name": "approved",
          "type": "bool"
        }
      ],
      "name": "setApprovalForAll",
      "outputs": [],
      "stateMutability": "nonpayable",
      "type": "function"
    },
    {
      "inputs": [
        {
          "internalType": "address",
          "name": "receiver",
          "type": "address"
        },
        {
          "internalType": "uint96",
          "name": "feeNumerator",
          "type": "uint96"
        }
      ],
      "name": "setDefaultRoyalty",
      "outputs": [],
      "stateMutability": "nonpayable",
      "type": "function"
    },
    {
      "inputs": [
        {
          "internalType": "bytes4",
          "name": "interfaceId",
          "type": "bytes4"
        }
      ],
      "name": "supportsInterface",
      "outputs": [
        {
          "internalType": "bool",
          "name": "",
          "type": "bool"
        }
      ],
      "stateMutability": "view",
      "type": "function"
    },
    {
      "inputs": [],
      "name": "symbol",
      "outputs": [
        {
          "internalType": "string",
          "name": "",
          "type": "string"
        }
      ],
      "stateMutability": "view",
      "type": "function"
    },
    {
      "inputs": [
        {
          "internalType": "uint256",
          "name": "tokenId",
          "type": "uint256"
        }
      ],
      "name": "tokenURI",
      "outputs": [
        {
          "internalType": "string",
          "name": "",
          "type": "string"
        }
      ],
      "stateMutability": "view",
      "type": "function"
    },
    {
      "inputs": [
        {
          "internalType": "address",
          "name": "from",
          "type": "address"
        },
        {
          "internalType": "address",
          "name": "to",
          "type": "address"
        },
        {
          "internalType": "uint256",
          "name": "tokenId",
          "type": "uint256"
        }
      ],
      "name": "transferFrom",
      "outputs": [],
      "stateMutability": "nonpayable",
      "type": "function"
    },
    {
      "inputs": [
        {
          "internalType": "address",
          "name": "newOwner",
          "type": "address"
        }
      ],
      "name": "transferOwnership",
      "outputs": [],
      "stateMutability": "nonpayable",
      "type": "function"
    }
  ],
  "bytecode": "0x608060405234801561001057600080fd5b506040516133543803806133548339818101604052810190610032919061037a565b80838381600090816100449190610626565b5080600190816100549190610626565b505050600073ffffffffffffffffffffffffffffffffffffffff168173ffffffffffffffffffffffffffffffffffffffff16036100c95760006040517f1e4fbdf70000000000000000000000000000000000000000000000000000000081526004016100c09190610707565b60405180910390fd5b6100d8816100e160201b60201c565b50505050610722565b6000600960009054906101000a900473ffffffffffffffffffffffffffffffffffffffff16905081600960006101000a81548173ffffffffffffffffffffffffffffffffffffffff021916908373ffffffffffffffffffffffffffffffffffffffff1602179055508173ffffffffffffffffffffffffffffffffffffffff168173ffffffffffffffffffffffffffffffffffffffff167f8be0079c531659141344cd1fd0a4f28419497f9722a3daafe3b4186f6b6457e060405160405180910390a35050565b6000604051905090565b600080fd5b600080fd5b600080fd5b600080fd5b6000601f19601f8301169050919050565b7f4e487b7100000000000000000000000000000000000000000000000000000000600052604160045260246000fd5b61020e826101c5565b810181811067ffffffffffffffff8211171561022d5761022c6101d6565b5b80604052505050565b60006102406101a7565b905061024c8282610205565b919050565b600067ffffffffffffffff82111561026c5761026b6101d6565b5b610275826101c5565b9050602081019050919050565b60005b838110156102a0578082015181840152602081019050610285565b60008484015250505050565b60006102bf6102ba84610251565b610236565b9050828152602081018484840111156102db576102da6101c0565b5b6102e6848285610282565b509392505050565b600082601f830112610303576103026101bb565b5b81516103138482602086016102ac565b91505092915050565b600073ffffffffffffffffffffffffffffffffffffffff82169050919050565b60006103478261031c565b9050919050565b6103578161033c565b811461036257600080fd5b50565b6000815190506103748161034e565b92915050565b600080600060608486031215610393576103926101b1565b5b600084015167ffffffffffffffff8111156103b1576103b06101b6565b5b6103bd868287016102ee565b935050602084015167ffffffffffffffff8111156103de576103dd6101b6565b5b6103ea868287016102ee565b92505060406103fb86828701610365565b9150509250925092565b600081519050919050565b7f4e487b7100000000000000000000000000000000000000000000000000000000600052602260045260246000fd5b6000600282049050600182168061045757607f821691505b60208210810361046a57610469610410565b5b50919050565b60008190508160005260206000209050919050565b60006020601f8301049050919050565b600082821b905092915050565b6000600883026104d27fffffffffffffffffffffffffffffffffffffffffffffffffffffffffffffffff82610495565b6104dc8683610495565b95508019841693508086168417925050509392505050565b6000819050919050565b6000819050919050565b600061052361051e610519846104f4565b6104fe565b6104f4565b9050919050565b6000819050919050565b61053d83610508565b6105516105498261052a565b8484546104a2565b825550505050565b600090565b610566610559565b610571818484610534565b505050565b5b818110156105955761058a60008261055e565b600181019050610577565b5050565b601f8211156105da576105ab81610470565b6105b484610485565b810160208510156105c3578190505b6105d76105cf85610485565b830182610576565b50505b505050565b600082821c905092915050565b60006105fd600019846008026105df565b1980831691505092915050565b600061061683836105ec565b9150826002028217905092915050565b61062f82610405565b67ffffffffffffffff811115610648576106476101d6565b5b610652825461043f565b61065d828285610599565b600060209050601f831160018114610690576000841561067e578287015190505b610688858261060a565b8655506106f0565b601f19841661069e86610470565b60005b828110156106c6578489015182556001820191506020850194506020810190506106a1565b868310156106e357848901516106df601f8916826105ec565b8355505b6001600288020188555050505b505050505050565b6107018161033c565b82525050565b600060208201905061071c60008301846106f8565b92915050565b612c23806107316000396000f3fe608060405234801561001057600080fd5b506004361061012b5760003560e01c806370a08231116100ad578063a22cb46511610071578063a22cb46514610343578063b88d4fde1461035f578063c87b56dd1461037b578063e985e9c5146103ab578063f2fde38b146103db5761012b565b806370a08231146102af578063715018a6146102df57806375794a3c146102e95780638da5cb5b1461030757806395d89b41146103255761012b565b8063095ea7b3116100f4578063095ea7b3146101fa57806323b872dd146102165780632a55205a1461023257806342842e0e146102635780636352211e1461027f5761012b565b806275a3171461013057806301ffc9a71461016057806304634d8d1461019057806306fdde03146101ac578063081812fc146101ca575b600080fd5b61014a60048036038101906101459190612036565b6103f7565b60405161015791906120ab565b60405180910390f35b61017a6004803603810190610175919061211e565b61043e565b6040516101879190612166565b60405180910390f35b6101aa60048036038101906101a591906121c5565b610450565b005b6101b4610466565b6040516101c19190612284565b60405180910390f35b6101e460048036038101906101df91906122d2565b6104f8565b6040516101f1919061230e565b60405180910390f35b610214600480360381019061020f9190612329565b610514565b005b610230600480360381019061022b9190612369565b61052a565b005b61024c600480360381019061024791906123bc565b61062c565b60405161025a9291906123fc565b60405180910390f35b61027d60048036038101906102789190612369565b61075c565b005b610299600480360381019061029491906122d2565b61077c565b6040516102a6919061230e565b60405180910390f35b6102c960048036038101906102c49190612425565b61078e565b6040516102d691906120ab565b60405180910390f35b6102e7610848565b005b6102f161085c565b6040516102fe91906120ab565b60405180910390f35b61030f610862565b60405161031c919061230e565b60405180910390f35b61032d61088c565b60405161033a9190612284565b60405180910390f35b61035d6004803603810190610358919061247e565b61091e565b005b6103796004803603810190610374919061255f565b610934565b005b610395600480360381019061039091906122d2565b610959565b6040516103a29190612284565b60405180910390f35b6103c560048036038101906103c091906125e2565b610a6c565b6040516103d29190612166565b60405180910390f35b6103f560048036038101906103f09190612425565b610b00565b005b6000610401610b86565b6000600a549050600a600081548092919061041b90612651565b919050555061042a8482610c0d565b6104348184610c2b565b8091505092915050565b600061044982610c87565b9050919050565b610458610b86565b6104628282610d01565b5050565b606060008054610475906126c8565b80601f01602080910402602001604051908101604052809291908181526020018280546104a1906126c8565b80156104ee5780601f106104c3576101008083540402835291602001916104ee565b820191906000526020600020905b8154815290600101906020018083116104d157829003601f168201915b5050505050905090565b600061050382610ea3565b5061050d82610f2b565b9050919050565b6105268282610521610f68565b610f70565b5050565b600073ffffffffffffffffffffffffffffffffffffffff168273ffffffffffffffffffffffffffffffffffffffff160361059c5760006040517f64a0ae92000000000000000000000000000000000000000000000000000000008152600401610593919061230e565b60405180910390fd5b60006105b083836105ab610f68565b610f82565b90508373ffffffffffffffffffffffffffffffffffffffff168173ffffffffffffffffffffffffffffffffffffffff1614610626578382826040517f64283d7b00000000000000000000000000000000000000000000000000000000815260040161061d939291906126f9565b60405180910390fd5b50505050565b600080600060086000868152602001908152602001600020905060008160000160009054906101000a900473ffffffffffffffffffffffffffffffffffffffff16905060008260000160149054906101000a90046bffffffffffffffffffffffff169050600073ffffffffffffffffffffffffffffffffffffffff168273ffffffffffffffffffffffffffffffffffffffff160361070d57600760000160009054906101000a900473ffffffffffffffffffffffffffffffffffffffff169150600760000160149054906101000a90046bffffffffffffffffffffffff1690505b600061071761119c565b6bffffffffffffffffffffffff16826bffffffffffffffffffffffff168861073f9190612730565b61074991906127a1565b9050828195509550505050509250929050565b61077783838360405180602001604052806000815250610934565b505050565b600061078782610ea3565b9050919050565b60008073ffffffffffffffffffffffffffffffffffffffff168273ffffffffffffffffffffffffffffffffffffffff16036108015760006040517f89c62b640000000000000000000000000000000000000000000000000000000081526004016107f8919061230e565b60405180910390fd5b600360008373ffffffffffffffffffffffffffffffffffffffff1673ffffffffffffffffffffffffffffffffffffffff168152602001908152602001600020549050919050565b610850610b86565b61085a60006111a6565b565b600a5481565b6000600960009054906101000a900473ffffffffffffffffffffffffffffffffffffffff16905090565b60606001805461089b906126c8565b80601f01602080910402602001604051908101604052809291908181526020018280546108c7906126c8565b80156109145780601f106108e957610100808354040283529160200191610914565b820191906000526020600020905b8154815290600101906020018083116108f757829003601f168201915b5050505050905090565b610930610929610f68565b838361126c565b5050565b61093f84848461052a565b61095361094a610f68565b858585856113db565b50505050565b606061096482610ea3565b506000600660008481526020019081526020016000208054610985906126c8565b80601f01602080910402602001604051908101604052809291908181526020018280546109b1906126c8565b80156109fe5780601f106109d3576101008083540402835291602001916109fe565b820191906000526020600020905b8154815290600101906020018083116109e157829003601f168201915b505050505090506000610a0f61158c565b90506000815103610a24578192505050610a67565b600082511115610a59578082604051602001610a4192919061280e565b60405160208183030381529060405292505050610a67565b610a62846115a3565b925050505b919050565b6000600560008473ffffffffffffffffffffffffffffffffffffffff1673ffffffffffffffffffffffffffffffffffffffff16815260200190815260200160002060008373ffffffffffffffffffffffffffffffffffffffff1673ffffffffffffffffffffffffffffffffffffffff16815260200190815260200160002060009054906101000a900460ff16905092915050565b610b08610b86565b600073ffffffffffffffffffffffffffffffffffffffff168173ffffffffffffffffffffffffffffffffffffffff1603610b7a5760006040517f1e4fbdf7000000000000000000000000000000000000000000000000000000008152600401610b71919061230e565b60405180910390fd5b610b83816111a6565b50565b610b8e610f68565b73ffffffffffffffffffffffffffffffffffffffff16610bac610862565b73ffffffffffffffffffffffffffffffffffffffff1614610c0b57610bcf610f68565b6040517f118cdaa7000000000000000000000000000000000000000000000000000000008152600401610c02919061230e565b60405180910390fd5b565b610c2782826040518060200160405280600081525061160c565b5050565b80600660008481526020019081526020016000209081610c4b91906129de565b507ff8e1a15aba9398e019f0b49df1a4fde98ee17ae345cb5f6b5e2c27f5033e8ce782604051610c7b91906120ab565b60405180910390a15050565b60007f2a55205a000000000000000000000000000000000000000000000000000000007bffffffffffffffffffffffffffffffffffffffffffffffffffffffff1916827bffffffffffffffffffffffffffffffffffffffffffffffffffffffff19161480610cfa5750610cf982611630565b5b9050919050565b6000610d0b61119c565b6bffffffffffffffffffffffff16905080826bffffffffffffffffffffffff161115610d705781816040517f6f483d09000000000000000000000000000000000000000000000000000000008152600401610d67929190612ae1565b60405180910390fd5b600073ffffffffffffffffffffffffffffffffffffffff168373ffffffffffffffffffffffffffffffffffffffff1603610de25760006040517fb6d9900a000000000000000000000000000000000000000000000000000000008152600401610dd9919061230e565b60405180910390fd5b60405180604001604052808473ffffffffffffffffffffffffffffffffffffffff168152602001836bffffffffffffffffffffffff16815250600760008201518160000160006101000a81548173ffffffffffffffffffffffffffffffffffffffff021916908373ffffffffffffffffffffffffffffffffffffffff16021790555060208201518160000160146101000a8154816bffffffffffffffffffffffff02191690836bffffffffffffffffffffffff160217905550905050505050565b600080610eaf83611691565b9050600073ffffffffffffffffffffffffffffffffffffffff168173ffffffffffffffffffffffffffffffffffffffff1603610f2257826040517f7e273289000000000000000000000000000000000000000000000000000000008152600401610f1991906120ab565b60405180910390fd5b80915050919050565b60006004600083815260200190815260200160002060009054906101000a900473ffffffffffffffffffffffffffffffffffffffff169050919050565b600033905090565b610f7d83838360016116ce565b505050565b600080610f8e84611691565b9050600073ffffffffffffffffffffffffffffffffffffffff168373ffffffffffffffffffffffffffffffffffffffff1614610fd057610fcf818486611893565b5b600073ffffffffffffffffffffffffffffffffffffffff168173ffffffffffffffffffffffffffffffffffffffff1614611061576110126000856000806116ce565b6001600360008373ffffffffffffffffffffffffffffffffffffffff1673ffffffffffffffffffffffffffffffffffffffff168152602001908152602001600020600082825403925050819055505b600073ffffffffffffffffffffffffffffffffffffffff168573ffffffffffffffffffffffffffffffffffffffff16146110e4576001600360008773ffffffffffffffffffffffffffffffffffffffff1673ffffffffffffffffffffffffffffffffffffffff168152602001908152602001600020600082825401925050819055505b846002600086815260200190815260200160002060006101000a81548173ffffffffffffffffffffffffffffffffffffffff021916908373ffffffffffffffffffffffffffffffffffffffff160217905550838573ffffffffffffffffffffffffffffffffffffffff168273ffffffffffffffffffffffffffffffffffffffff167fddf252ad1be2c89b69c2b068fc378daa952ba7f163c4a11628f55a4df523b3ef60405160405180910390a4809150509392505050565b6000612710905090565b6000600960009054906101000a900473ffffffffffffffffffffffffffffffffffffffff16905081600960006101000a81548173ffffffffffffffffffffffffffffffffffffffff021916908373ffffffffffffffffffffffffffffffffffffffff1602179055508173ffffffffffffffffffffffffffffffffffffffff168173ffffffffffffffffffffffffffffffffffffffff167f8be0079c531659141344cd1fd0a4f28419497f9722a3daafe3b4186f6b6457e060405160405180910390a35050565b600073ffffffffffffffffffffffffffffffffffffffff168273ffffffffffffffffffffffffffffffffffffffff16036112dd57816040517f5b08ba180000000000000000000000000000000000000000000000000000000081526004016112d4919061230e565b60405180910390fd5b80600560008573ffffffffffffffffffffffffffffffffffffffff1673ffffffffffffffffffffffffffffffffffffffff16815260200190815260200160002060008473ffffffffffffffffffffffffffffffffffffffff1673ffffffffffffffffffffffffffffffffffffffff16815260200190815260200160002060006101000a81548160ff0219169083151502179055508173ffffffffffffffffffffffffffffffffffffffff168373ffffffffffffffffffffffffffffffffffffffff167f17307eab39ab6107e8899845ad3d59bd9653f200f220920489ca2b5937696c31836040516113ce9190612166565b60405180910390a3505050565b60008373ffffffffffffffffffffffffffffffffffffffff163b1115611585578273ffffffffffffffffffffffffffffffffffffffff1663150b7a02868685856040518563ffffffff1660e01b815260040161143a9493929190612b5f565b6020604051808303816000875af192505050801561147657506040513d601f19601f820116820180604052508101906114739190612bc0565b60015b6114fa573d80600081146114a6576040519150601f19603f3d011682016040523d82523d6000602084013e6114ab565b606091505b5060008151036114f257836040517f64a0ae920000000000000000000000000000000000000000000000000000000081526004016114e9919061230e565b60405180910390fd5b805160208201fd5b63150b7a0260e01b7bffffffffffffffffffffffffffffffffffffffffffffffffffffffff1916817bffffffffffffffffffffffffffffffffffffffffffffffffffffffff19161461158357836040517f64a0ae9200000000000000000000000000000000000000000000000000000000815260040161157a919061230e565b60405180910390fd5b505b5050505050565b606060405180602001604052806000815250905090565b60606115ae82610ea3565b5060006115b961158c565b905060008151116115d95760405180602001604052806000815250611604565b806115e384611957565b6040516020016115f492919061280e565b6040516020818303038152906040525b915050919050565b6116168383611a25565b61162b611621610f68565b60008585856113db565b505050565b6000634906490660e01b7bffffffffffffffffffffffffffffffffffffffffffffffffffffffff1916827bffffffffffffffffffffffffffffffffffffffffffffffffffffffff1916148061168a575061168982611b1e565b5b9050919050565b60006002600083815260200190815260200160002060009054906101000a900473ffffffffffffffffffffffffffffffffffffffff169050919050565b80806117075750600073ffffffffffffffffffffffffffffffffffffffff168273ffffffffffffffffffffffffffffffffffffffff1614155b1561183b57600061171784610ea3565b9050600073ffffffffffffffffffffffffffffffffffffffff168373ffffffffffffffffffffffffffffffffffffffff161415801561178257508273ffffffffffffffffffffffffffffffffffffffff168173ffffffffffffffffffffffffffffffffffffffff1614155b801561179557506117938184610a6c565b155b156117d757826040517fa9fbf51f0000000000000000000000000000000000000000000000000000000081526004016117ce919061230e565b60405180910390fd5b811561183957838573ffffffffffffffffffffffffffffffffffffffff168273ffffffffffffffffffffffffffffffffffffffff167f8c5be1e5ebec7d5bd14f71427d1e84f3dd0314c0f7b2291e5b200ac8c7c3b92560405160405180910390a45b505b836004600085815260200190815260200160002060006101000a81548173ffffffffffffffffffffffffffffffffffffffff021916908373ffffffffffffffffffffffffffffffffffffffff16021790555050505050565b61189e838383611c00565b61195257600073ffffffffffffffffffffffffffffffffffffffff168373ffffffffffffffffffffffffffffffffffffffff160361191357806040517f7e27328900000000000000000000000000000000000000000000000000000000815260040161190a91906120ab565b60405180910390fd5b81816040517f177e802f0000000000000000000000000000000000000000000000000000000081526004016119499291906123fc565b60405180910390fd5b505050565b60606000600161196684611cc1565b01905060008167ffffffffffffffff81111561198557611984611f0b565b5b6040519080825280601f01601f1916602001820160405280156119b75781602001600182028036833780820191505090505b509050600082602083010190505b600115611a1a578080600190039150507f3031323334353637383961626364656600000000000000000000000000000000600a86061a8153600a8581611a0e57611a0d612772565b5b049450600085036119c5575b819350505050919050565b600073ffffffffffffffffffffffffffffffffffffffff168273ffffffffffffffffffffffffffffffffffffffff1603611a975760006040517f64a0ae92000000000000000000000000000000000000000000000000000000008152600401611a8e919061230e565b60405180910390fd5b6000611aa583836000610f82565b9050600073ffffffffffffffffffffffffffffffffffffffff168173ffffffffffffffffffffffffffffffffffffffff1614611b195760006040517f73c6ac6e000000000000000000000000000000000000000000000000000000008152600401611b10919061230e565b60405180910390fd5b505050565b60007f80ac58cd000000000000000000000000000000000000000000000000000000007bffffffffffffffffffffffffffffffffffffffffffffffffffffffff1916827bffffffffffffffffffffffffffffffffffffffffffffffffffffffff19161480611be957507f5b5e139f000000000000000000000000000000000000000000000000000000007bffffffffffffffffffffffffffffffffffffffffffffffffffffffff1916827bffffffffffffffffffffffffffffffffffffffffffffffffffffffff1916145b80611bf95750611bf882611e14565b5b9050919050565b60008073ffffffffffffffffffffffffffffffffffffffff168373ffffffffffffffffffffffffffffffffffffffff1614158015611cb857508273ffffffffffffffffffffffffffffffffffffffff168473ffffffffffffffffffffffffffffffffffffffff161480611c795750611c788484610a6c565b5b80611cb757508273ffffffffffffffffffffffffffffffffffffffff16611c9f83610f2b565b73ffffffffffffffffffffffffffffffffffffffff16145b5b90509392505050565b600080600090507a184f03e93ff9f4daa797ed6e38ed64bf6a1f0100000000000000008310611d1f577a184f03e93ff9f4daa797ed6e38ed64bf6a1f0100000000000000008381611d1557611d14612772565b5b0492506040810190505b6d04ee2d6d415b85acef81000000008310611d5c576d04ee2d6d415b85acef81000000008381611d5257611d51612772565b5b0492506020810190505b662386f26fc100008310611d8b57662386f26fc100008381611d8157611d80612772565b5b0492506010810190505b6305f5e1008310611db4576305f5e1008381611daa57611da9612772565b5b0492506008810190505b6127108310611dd9576127108381611dcf57611dce612772565b5b0492506004810190505b60648310611dfc5760648381611df257611df1612772565b5b0492506002810190505b600a8310611e0b576001810190505b80915050919050565b60007f01ffc9a7000000000000000000000000000000000000000000000000000000007bffffffffffffffffffffffffffffffffffffffffffffffffffffffff1916827bffffffffffffffffffffffffffffffffffffffffffffffffffffffff1916149050919050565b6000604051905090565b600080fd5b600080fd5b600073ffffffffffffffffffffffffffffffffffffffff82169050919050565b6000611ebd82611e92565b9050919050565b611ecd81611eb2565b8114611ed857600080fd5b50565b600081359050611eea81611ec4565b92915050565b600080fd5b600080fd5b6000601f19601f8301169050919050565b7f4e487b7100000000000000000000000000000000000000000000000000000000600052604160045260246000fd5b611f4382611efa565b810181811067ffffffffffffffff82111715611f6257611f61611f0b565b5b80604052505050565b6000611f75611e7e565b9050611f818282611f3a565b919050565b600067ffffffffffffffff821115611fa157611fa0611f0b565b5b611faa82611efa565b9050602081019050919050565b82818337600083830152505050565b6000611fd9611fd484611f86565b611f6b565b905082815260208101848484011115611ff557611ff4611ef5565b5b612000848285611fb7565b509392505050565b600082601f83011261201d5761201c611ef0565b5b813561202d848260208601611fc6565b91505092915050565b6000806040838503121561204d5761204c611e88565b5b600061205b85828601611edb565b925050602083013567ffffffffffffffff81111561207c5761207b611e8d565b5b61208885828601612008565b9150509250929050565b6000819050919050565b6120a581612092565b82525050565b60006020820190506120c0600083018461209c565b92915050565b60007fffffffff0000000000000000000000000000000000000000000000000000000082169050919050565b6120fb816120c6565b811461210657600080fd5b50565b600081359050612118816120f2565b92915050565b60006020828403121561213457612133611e88565b5b600061214284828501612109565b91505092915050565b60008115159050919050565b6121608161214b565b82525050565b600060208201905061217b6000830184612157565b92915050565b60006bffffffffffffffffffffffff82169050919050565b6121a281612181565b81146121ad57600080fd5b50565b6000813590506121bf81612199565b92915050565b600080604083850312156121dc576121db611e88565b5b60006121ea85828601611edb565b92505060206121fb858286016121b0565b9150509250929050565b600081519050919050565b600082825260208201905092915050565b60005b8381101561223f578082015181840152602081019050612224565b60008484015250505050565b600061225682612205565b6122608185612210565b9350612270818560208601612221565b61227981611efa565b840191505092915050565b6000602082019050818103600083015261229e818461224b565b905092915050565b6122af81612092565b81146122ba57600080fd5b50565b6000813590506122cc816122a6565b92915050565b6000602082840312156122e8576122e7611e88565b5b60006122f6848285016122bd565b91505092915050565b61230881611eb2565b82525050565b600060208201905061232360008301846122ff565b92915050565b600080604083850312156123405761233f611e88565b5b600061234e85828601611edb565b925050602061235f858286016122bd565b9150509250929050565b60008060006060848603121561238257612381611e88565b5b600061239086828701611edb565b93505060206123a186828701611edb565b92505060406123b2868287016122bd565b9150509250925092565b600080604083850312156123d3576123d2611e88565b5b60006123e1858286016122bd565b92505060206123f2858286016122bd565b9150509250929050565b600060408201905061241160008301856122ff565b61241e602083018461209c565b9392505050565b60006020828403121561243b5761243a611e88565b5b600061244984828501611edb565b91505092915050565b61245b8161214b565b811461246657600080fd5b50565b60008135905061247881612452565b92915050565b6000806040838503121561249557612494611e88565b5b60006124a385828601611edb565b92505060206124b485828601612469565b9150509250929050565b600067ffffffffffffffff8211156124d9576124d8611f0b565b5b6124e282611efa565b9050602081019050919050565b60006125026124fd846124be565b611f6b565b90508281526020810184848401111561251e5761251d611ef5565b5b612529848285611fb7565b509392505050565b600082601f83011261254657612545611ef0565b5b81356125568482602086016124ef565b91505092915050565b6000806000806080858703121561257957612578611e88565b5b600061258787828801611edb565b945050602061259887828801611edb565b93505060406125a9878288016122bd565b925050606085013567ffffffffffffffff8111156125ca576125c9611e8d565b5b6125d687828801612531565b91505092959194509250565b600080604083850312156125f9576125f8611e88565b5b600061260785828601611edb565b925050602061261885828601611edb565b9150509250929050565b7f4e487b7100000000000000000000000000000000000000000000000000000000600052601160045260246000fd5b600061265c82612092565b91507fffffffffffffffffffffffffffffffffffffffffffffffffffffffffffffffff820361268e5761268d612622565b5b600182019050919050565b7f4e487b7100000000000000000000000000000000000000000000000000000000600052602260045260246000fd5b600060028204905060018216806126e057607f821691505b6020821081036126f3576126f2612699565b5b50919050565b600060608201905061270e60008301866122ff565b61271b602083018561209c565b61272860408301846122ff565b949350505050565b600061273b82612092565b915061274683612092565b925082820261275481612092565b9150828204841483151761276b5761276a612622565b5b5092915050565b7f4e487b7100000000000000000000000000000000000000000000000000000000600052601260045260246000fd5b60006127ac82612092565b91506127b783612092565b9250826127c7576127c6612772565b5b828204905092915050565b600081905092915050565b60006127e882612205565b6127f281856127d2565b9350612802818560208601612221565b80840191505092915050565b600061281a82856127dd565b915061282682846127dd565b91508190509392505050565b60008190508160005260206000209050919050565b60006020601f8301049050919050565b600082821b905092915050565b6000600883026128947fffffffffffffffffffffffffffffffffffffffffffffffffffffffffffffffff82612857565b61289e8683612857565b95508019841693508086168417925050509392505050565b6000819050919050565b60006128db6128d66128d184612092565b6128b6565b612092565b9050919050565b6000819050919050565b6128f5836128c0565b612909612901826128e2565b848454612864565b825550505050565b600090565b61291e612911565b6129298184846128ec565b505050565b5b8181101561294d57612942600082612916565b60018101905061292f565b5050565b601f8211156129925761296381612832565b61296c84612847565b8101602085101561297b578190505b61298f61298785612847565b83018261292e565b50505b505050565b600082821c905092915050565b60006129b560001984600802612997565b1980831691505092915050565b60006129ce83836129a4565b9150826002028217905092915050565b6129e782612205565b67ffffffffffffffff811115612a00576129ff611f0b565b5b612a0a82546126c8565b612a15828285612951565b600060209050601f831160018114612a485760008415612a36578287015190505b612a4085826129c2565b865550612aa8565b601f198416612a5686612832565b60005b82811015612a7e57848901518255600182019150602085019450602081019050612a59565b86831015612a9b5784890151612a97601f8916826129a4565b8355505b6001600288020188555050505b505050505050565b6000612acb612ac6612ac184612181565b6128b6565b612092565b9050919050565b612adb81612ab0565b82525050565b6000604082019050612af66000830185612ad2565b612b03602083018461209c565b9392505050565b600081519050919050565b600082825260208201905092915050565b6000612b3182612b0a565b612b3b8185612b15565b9350612b4b818560208601612221565b612b5481611efa565b840191505092915050565b6000608082019050612b7460008301876122ff565b612b8160208301866122ff565b612b8e604083018561209c565b8181036060830152612ba08184612b26565b905095945050505050565b600081519050612bba816120f2565b92915050565b600060208284031215612bd657612bd5611e88565b5b6000612be484828501612bab565b9150509291505056fea2646970667358221220699712821e8883255273ebfda70de8bf9cce3767b14a86e3c514855651ca859164736f6c634300081b0033",
  "linkReferences": {},
  "deployedLinkReferences": {}
}